:1000000002EF00F0B1EF07F004EF08F08B9A030065
:10001000A1A4D0B61200FBD70CEF08F018EF00F047
:10003000F26AFC6A9DEC00F0040062EC03F078ECDC
:1000400007F0B4EC00F0DEEC01F0F6D73D6A1E0ECE
:100050000F01546F400E02010D6F2C0E0E6F020E39
:100060000F6F080E0C6F0C8F6C0E126F020E136F59
:10007000400E106F400C456EF29EB4EC00F0B50ED1
:10008000451804E0030ED36E0300FED7550EA76E8D
:10009000AA0EA76EA682A6B2FED7A69412003804B6
:1000A00002E188EC00F0646A150E616E606A648695
:1000B00057EC07F0010E3F6E386A120060CF2FF048
:1000C000040E606E62986482A194A08406EC00F035
:1000D000A0942F5060121200356A04D8366A010EBF
:1000E000376E010C09680A680B680C681200A9ECED
:1000F00000F06492609401D0629462A41200FCD774
:10010000456E4504D8A4120026EC00F06CEF00F018
:100110006492646A46684568F6EC07F03F6A12002C
:10012000380401E1120064A64FEC00F0120088ECE4
:1001300000F0FF0000F000F012006CEC00F08B9A71
:10014000949AA3EF00F064B688EC00F0386A90EF60
:1001500000F0030E466E456AFCEF07F0C2EF03F0B5
:1001600004001200120012001200FF00FF00FF0046
:1003000000B6046134034D006900630072006F00A1
:1003100063006800690070002000540065006300FD
:1003200068006E006F006C006F00670079002000AD
:1003300049006E0063002E000902290001010080BF
:10034000320904000002030000000921110100012C
:10035000221D00070581034000010705010340003D
:100360000126034800490044002000550053004284
:1003700000200042006F006F0074006C006F00618D
:10038000006400650072000600FF0901A101190167
:100390002940150026FF00750895408100190129A4
:1003A000409100C01201000200000008D8043C0087
:1003B000010101020001040309040000060E3F18B8
:1003C000D8B464B21200355001E050D102010CBF24
:1003D0001200400E456E600E6FEC06F0010E356E99
:1003E0002A6A2A50A10FD96EDA6ADF6A2A2A3F0EDA
:1003F0002A64F7D73F0C020110BF1200020E000161
:10040000A16F3A0EA26F010EA36FA46FA56B100E21
:10041000A66FA76BA86BA96B300EAA6FAB6BAC6B0A
:10042000030EAD6FAE6BAF6B300EB06FB16B0E0ED7
:10043000B26FB36BB46BB56B040EB66FB76BB86BC2
:10044000200EB96FBA6B080EBB6FBC6BBD6BBE6B79
:10045000BF69020EBF6FC06BC16BF00EC26FC36B82
:10046000C46B010EC56FC66BC76BC869A50EDA6F8A
:1004700025D99FEC06F0356A1200010E376E6151E6
:10048000FAE1376AF8D7276A400E266EB0EC00F022
:10049000F86A26C04AF027C04BF0D8904B324A3257
:1004A000D8904B324A324A50F76E2640E842C00B91
:1004B000F66E940EA66EB50E3BEC00F062EC03F007
:1004C000264A272A2704E2E32A6A2AC0A9FFA86845
:1004D000040EA66E62EC03F0B50E3BEC00F02A3E73
:1004E000F4D7200EF86EF76A16EC05F03BEC00F03E
:1004F000C2D7300E631905E13750BDE195EC07F026
:10050000BAD7F00E631903E1C8EC07F0B4D7092895
:100510000EE10A280CE10B280AE10C2808E161C071
:1005200009F062C00AF063C00BF064C00CF009501F
:100530006119A1E10A5062199EE10B5063199BE118
:100540000C50641998E12A6A14D06551A0082A2435
:10055000D96EDA6A000E3624A4D8362A092A000E8B
:100560000A220B220C22100E361802E11CEC04F0B9
:100570002A2A000165512A5C01E37DD7E6D71CECED
:1005800004F072EC00F077D7070EA16F61C0A2F003
:1005900062C0A3F063C0A4F064C0A5F065C0A6F07B
:1005A00061C011F062C012F063C013F02A6A1BD060
:1005B000F00E631909E161512A24A96EA66AA6808A
:1005C00077D8A8CFDFFF0ED011C0F6FF12C0F7FF1B
:1005D00013C0F8FF6DD80800F5CFDFFF112A000E19
:1005E000122213222A2A65512A5CE2E3020110BF7B
:1005F000120064D89FEC06F03ED7C7EC04F03BD75E
:100600000C0EA16F010EA36F020EA26F160E0FEC5F
:1006100007F0F5CFA4F00A00F5CFA5F0060EA66FFF
:10062000100EA76FA86BA96B600EAB6F0D0EAA6FB3
:10063000400EAC6F000EAD6BAE6BAF6BB069B169C5
:10064000B269B369B46BB569B669B76BB869B969B2
:10065000BA69BB69BC69BD69020110BF12002ED81E
:100660009FEC06F008D797EC00F005D70001605129
:10067000020A01E1C0D6010A01E1FFD6070A01E141
:1006800002D7010A01E135D7030A01E178D7010A4F
:1006900001E17AD70F0AE7E0010AAFE0050AB0E00E
:1006A000EAD6E16EE26A010EE222DFCFE7FF120036
:1006B0006551E1082A24D96EDA6A1200400E456EAF
:1006C000A10E120090EC00F03F5001E1120062B464
:1006D00077EC00F064B2120062B057EC07F062B839
:1006E0005EEC00F0030E3F6001D0030C3A6A62A694
:1006F0001200635063CF48F07C0E48162AE163B2C3
:1007000002D0246A02D0040E246E020E256E629678
:1007100024C0D9FF25C0DAFFDF30E8320F0B0D0A05
:1007200020E12D6A23D8DECF48F0DDCF49F048C064
:10073000D9FF49C0DAFF2D50010F1FD817D8DE2A84
:10074000000EDD222D2A070E2D64ECD7DFEC07F01A
:1007500008D0040E631804E1629636EC07F001D06D
:1007600062963A2A030E3A64C2D7030C20EE02F0D6
:100770002450D9262550DA221200E16EE26ADFCF3A
:10078000E7FF120001501F0BE80601E012000550C0
:1007900001E01200060E021814E01AD0020E3B6EA1
:1007A0004A0E3FD8296A090E0AD0020E3B6E430456
:1007B00002E1870E36D843040AE1296A1D0E286E2D
:1007C00006D00450210AEAE0030AEFE0010A408261
:1007D0000138E832030BE80614E01200020E3B6E0B
:1007E000420E1D6E24D0020E3B6E04C042F0020C7D
:1007F000020E3B6E410EF5D7020E3B6E03C041F078
:10080000020C0250010AD8B41200030AE7E0010A00
:10081000EFE00A0AD8B41200030AE5E0010AECE0AE
:1008200012001D6E1D50D8A4030E1E6E12001E6A0B
:100830004092010E286E010C3650095C466E000E87
:100840000A58476E000E0B58486E000E0C58496E41
:100850004650176E47C018F048C019F0F86A18C023
:10086000F7FF17C0F6FF326AF6500F0B336EF00E2B
:10087000F616346A335011E136500CE0000E322483
:10088000D96EDA6A010EDA22DF50F56E0D00322AD7
:10089000360606D0F5680D0003D0F5680D00330666
:1008A000342A0F0E3464E6D70A001BD83BEC00F064
:1008B000346A13D0000E466E010E476E3250462643
:1008C000000E472234504624D96E000E4720DA6EBF
:1008D000000E342451EC03F0342A3650345CEAE341
:1008E0001200A40EA66EB50C03040BE101501F0B01
:1008F00008E1010E3B6E030E021802E1408001D0B8
:1009000040900350D8A4120001501F0B020AD8A433
:10091000120005500F0BD8B412002DD8456A020EF4
:10092000466E040E4526000E4622F3504526F4502E
:10093000462227D845241A6EF45046201B6E030E1B
:10094000021807E113D8040EDF6E10D8000EDB8EFC
:10095000000C05AE04D00AD8400EDF6E400C06D85D
:10096000080EDF6E03D8000EDB8E000C1AC0D9FF14
:100970001BC0DAFF1200010E3B6E05500F0B080D75
:100980001200010E05AE000E040DF3501200146AA1
:10099000100E156E166A2B6A14C0F6FF15C0F7FF0D
:1009A00016C0F8FF3CD80800F5CFDFFF142A000E70
:1009B000152216222B2A3F0E2B64EED70D0E0101B5
:1009C000066F600E076FF86A100EF76E2FD83BECBB
:1009D00000F03F0E146E100E156E166A3F0E2B6E51
:1009E00016C0F8FF15C0F7FF14C0F6FF18D8DF5087
:1009F000F56E0C002BC046F00F0E461606E1B0EC6B
:100A000000F071EC04F03BEC00F01406000E155AF7
:100A1000165A0A002B5001E112002B06E1D7000EF6
:100A20002B24D96EDA6A010EDA221200F66A940ECD
:100A3000A66EB50C3B5010E152EC07F00D6E390478
:100A400005E1010ECDEC06F0396A1200000ECDEC86
:100A500006F0010E396E010C01AE1ED0010E3C6E87
:100A60002850075C2950085804E207C028F008C045
:100A700029F06BEC05F0480E0D6E010ECDEC06F082
:100A8000000ECDEC06F0240E02010A6F020E0B6F71
:100A9000480E086F088F480C020E3C6E040E0D6E57
:100AA0000750081002E1480E0D6E390405E1010EF1
:100AB000CDEC06F0396A05D0000ECDEC06F0010E43
:100AC000396E07500810D8A412000201096B480EB5
:100AD000086F088F480C080E2C6E29500DE1080E87
:100AE000285C0AE228C02CF03E5002E1010E03D03F
:100AF0003E0402E1020E3E6E2CC009F22C50285E2C
:100B0000000E295A240E1A6E020E1B6E40A21ED031
:100B10000DD01DC0F6FF1DD8B6EC04F0020EF76430
:100B200003D00800F55001D018D81DD82C50F1E1A1
:100B300012001DC0F6FF0DD8B6EC04F0020EF764EB
:100B400003D00800F55001D008D80DD82C50F1E1A1
:100B500012001EC0F7FFF86A1200F6CFE1FFF7CFD0
:100B6000E2FFE7501200DF6E1A4A1B2A1D4A1E2AB6
:100B70002C0612000138E832030B18E01200010EB7
:100B80003B6E040E3F6E040C010E3B6E430E1D6E59
:100B900017EF04F02CD8476E47C01DF017EF04F094
:100BA00026D8D96EDA6A03C0DFFF1200025002E1D4
:100BB00038EF06F0010A02E174EF04F0020A02E1E4
:100BC00074EF04F0060ADBE0030A02E1FCEF05F033
:100BD000010AD8B412000F0AD7E0010A02E114EFAB
:100BE00007F0030AD7E0010ADBE0070A1200010E52
:100BF0003B6E0550440F1200800E011830E01200C9
:100C0000010E3B6EA40E11EC04F0120E09D003503D
:100C10002DE1010E3B6E380E11EC04F0296A290E0D
:100C2000286E24D0010E3B6E0350010F456E45C067
:100C3000F6FF030EF76E0900F5CF1DF01E6E1DC006
:100C4000F6FF1EC0F7FFF86A020EF76403D0080033
:100C5000F55002D0ADEC05F0286E296A07D004509B
:100C6000010ACEE0030AD3E0010ADCE04082120070
:100C7000246B256B23D0010E3B6E40B0248325D01E
:100C8000010E3B6E22D0BBEC04F0456A020E466EAC
:100C9000040E4526000E4622F3504526F450462207
:100CA000C1EC04F045241A6EF45046201B6EB6ECDD
:100CB00004F0DFA40AD0010E246F07D001501F0BEF
:100CC000DAE0010ADDE0030ADEE03B04D8A412000A
:100CD000240E1D6E020E1E6E4092286E020C476E90
:100CE0003D6A02010CBF120045500D5D02E20DC2CB
:100CF00045F03D6A0BD02C0E3D24D96EDA6A020E07
:100D0000DA2247503D24BDEC03F03D2A45503D5CBE
:100D1000F2E3400E02010D6F0C170CBD03D0466AC2
:100D2000462A01D0466A463A4646464602010C51DA
:100D30004618BF0B46180C6F0C870C8F1200476EBD
:100D4000400E456401D0456E486A0DD04750482496
:100D5000D96EDA6A6C0E4824E16EE26A020EE22273
:100D6000DFCFE7FF482A4550485CF0E345C011F269
:100D7000400E0201101710BD03D0466A462A01D06A
:100D8000466A463A46464646020110514618BF0B8F
:100D90004618106F1087108F1200456E080E0E6EE9
:100DA0001C0E0F6E020E106E455006E1140E0F6EF3
:100DB000020E106E226A03D0040E226E020E236E03
:100DC0000BD80DC0DEFF0EC0DEFF0FC0DEFF10C06F
:100DD000DEFF02D8DF8E120022C0D9FF23C0DAFF67
:100DE00012008B98949880A618EC00F0060E17D885
:100DF0000D0EF5180FE10900600EF5180BE1F66A0B
:100E0000100EF76E0900F52803E10900F52802E04D
:100E100000EF08F08B8818EC00F002EF00F0F66E9F
:100E2000100EF76E0900100C010E3B6E0F0116D864
:100E30002E6A2E50440FD96EDA6ADF6A2E2A2E509F
:100E4000F8E003C043F0435080EC00F0035003E1AE
:100E5000050E3F6E050C060E3F6E060C546B556B6F
:100E6000566B576B586B596B5A6B1200040E3F1838
:100E700008E103C05CFF0F015C51050ED8B4030EFE
:100E80003F6E3C04D8A412006BEC05F0020E3E1835
:100E900002E108D8040C0201480E08BD080E086FD4
:100EA000088F1200040E0201086F088F040C030E55
:100EB0003F6E0F015B6B626A7B0E606E5C6B2EECAB
:100EC00007F0160E536F648C03D06296B0EC00F0FE
:100ED00062B6FBD7649C6498040E0D6E000ECDECD8
:100EE00006F0010E396E406A436A000E80EF00F092
:100EF0002006D8A0210620502110D8A412004E0EA2
:100F0000216E206A060E3F6002D08B8A060C8BBAD7
:100F100003D0456A452A01D0456A453A45468B507B
:100F20004518DF0B45188B6E1200300EF86E6251BB
:100F3000F76E61C0F7FF306A0FD06551A00830240A
:100F4000D96EDA6ADF50F56E0C00C40EA66EB50ECF
:100F50003BEC00F00900302A00016551305CEDE304
:100F6000120001EE00F0400EEE6AE806FDE100EE30
:100F700060F0820EEE6AE806FDE100EE01F0440E3C
:100F8000EE6AE806FDE1000EF86E0001F1EF06F0F2
:100F9000316A10D061513124A96E6551A008312405
:100FA000D96EDA6ADF50A86E040EA66EB50E3BEC61
:100FB00000F0312A00016551315CECE312000201BE
:100FC000086B3E6A00AF02D0006B396A04AF03D0F1
:100FD000046B010E396E3C6A3B6A286A296A649880
:100FE000BAEC05F0AEEC00F01AEF05F005D0B0EC6D
:100FF00000F04506D8A0460645504610F8E112001C
:020000040020DA
:08000000FFFFFFFFFFFFFFFF00
:020000040030CA
:0E0000000032031EFF0085FF03C003E0034033
:00000001FF
